{
  "contractName": "TradeImpl",
  "abi": [
    {
      "constant": false,
      "inputs": [
        {
          "name": "_bytesData",
          "type": "bytes32[]"
        },
        {
          "name": "_intData",
          "type": "uint256[]"
        },
        {
          "name": "_addressData",
          "type": "address[]"
        }
      ],
      "name": "submitTrade",
      "outputs": [],
      "payable": false,
      "stateMutability": "nonpayable",
      "type": "function"
    },
    {
      "constant": false,
      "inputs": [
        {
          "name": "tradeId",
          "type": "bytes32"
        }
      ],
      "name": "getTrade",
      "outputs": [
        {
          "name": "_bytesData",
          "type": "bytes32[]"
        },
        {
          "name": "_intData",
          "type": "uint256[]"
        },
        {
          "name": "_addressData",
          "type": "address[]"
        }
      ],
      "payable": false,
      "stateMutability": "nonpayable",
      "type": "function"
    }
  ],
  "bytecode": "0x608060405234801561001057600080fd5b506107c1806100206000396000f3fe60806040526004361061004c576000357c0100000000000000000000000000000000000000000000000000000000900463ffffffff168063613e498014610051578063a3b1379914610181575b600080fd5b34801561005d57600080fd5b5061017f6004803603606081101561007457600080fd5b810190808035906020019064010000000081111561009157600080fd5b8201836020820111156100a357600080fd5b803590602001918460208302840111640100000000831117156100c557600080fd5b9091929391929390803590602001906401000000008111156100e657600080fd5b8201836020820111156100f857600080fd5b8035906020019184602083028401116401000000008311171561011a57600080fd5b90919293919293908035906020019064010000000081111561013b57600080fd5b82018360208201111561014d57600080fd5b8035906020019184602083028401116401000000008311171561016f57600080fd5b90919293919293905050506102a1565b005b34801561018d57600080fd5b506101ba600480360360208110156101a457600080fd5b81019080803590602001909291905050506104f0565b60405180806020018060200180602001848103845287818151815260200191508051906020019060200280838360005b838110156102055780820151818401526020810190506101ea565b50505050905001848103835286818151815260200191508051906020019060200280838360005b8381101561024757808201518184015260208101905061022c565b50505050905001848103825285818151815260200191508051906020019060200280838360005b8381101561028957808201518184015260208101905061026e565b50505050905001965050505050505060405180910390f35b60008686600060028111156102b257fe5b81811015156102bd57fe5b9050602002013590506102ce610733565b60008083815260200190815260200160002060a0604051908101604052908160008201548152602001600182015481526020016002820160009054906101000a900473ffffffffffffffffffffffffffffffffffffffff1673ffffffffffffffffffffffffffffffffffffffff1673ffffffffffffffffffffffffffffffffffffffff1681526020016003820160009054906101000a900473ffffffffffffffffffffffffffffffffffffffff1673ffffffffffffffffffffffffffffffffffffffff1673ffffffffffffffffffffffffffffffffffffffff16815260200160048201548152505090508787600160028111156103c757fe5b81811015156103d257fe5b905060200201358160200181815250508383600060018111156103f157fe5b81811015156103fc57fe5b9050602002013573ffffffffffffffffffffffffffffffffffffffff16816040019073ffffffffffffffffffffffffffffffffffffffff16908173ffffffffffffffffffffffffffffffffffffffff1681525050838360018081111561045e57fe5b818110151561046957fe5b9050602002013573ffffffffffffffffffffffffffffffffffffffff16816060019073ffffffffffffffffffffffffffffffffffffffff16908173ffffffffffffffffffffffffffffffffffffffff168152505085856000808111156104cb57fe5b81811015156104d657fe5b905060200201358160800181815250505050505050505050565b60608060606104fd610733565b60008086815260200190815260200160002060a0604051908101604052908160008201548152602001600182015481526020016002820160009054906101000a900473ffffffffffffffffffffffffffffffffffffffff1673ffffffffffffffffffffffffffffffffffffffff1673ffffffffffffffffffffffffffffffffffffffff1681526020016003820160009054906101000a900473ffffffffffffffffffffffffffffffffffffffff1673ffffffffffffffffffffffffffffffffffffffff1673ffffffffffffffffffffffffffffffffffffffff1681526020016004820154815250509050806000015184600060028111156105fa57fe5b81518110151561060657fe5b90602001906020020181815250508060200151846001600281111561062757fe5b81518110151561063357fe5b90602001906020020181815250508060400151826000600181111561065457fe5b81518110151561066057fe5b9060200190602002019073ffffffffffffffffffffffffffffffffffffffff16908173ffffffffffffffffffffffffffffffffffffffff16815250508060600151826001808111156106ae57fe5b8151811015156106ba57fe5b9060200190602002019073ffffffffffffffffffffffffffffffffffffffff16908173ffffffffffffffffffffffffffffffffffffffff168152505080608001518360008081111561070857fe5b81518110151561071457fe5b9060200190602002018181525050838383935093509350509193909250565b60a0604051908101604052806000801916815260200160008019168152602001600073ffffffffffffffffffffffffffffffffffffffff168152602001600073ffffffffffffffffffffffffffffffffffffffff16815260200160008152509056fea165627a7a72305820c4f5f5b2adef40287f8cc8efc1368c24e0066b475b3dc4c9ada5d1e8946ec18d0029",
  "source": "pragma solidity >=0.4.22 <0.6.0;\n\nimport \"./TradeInterface.sol\";\nimport \"./TradeLib.sol\";\n\ncontract TradeImpl is TradeInterface {\n\n    enum bytesData {tradeId,tradeType,assetId}\n    enum integerData {tradeAmount}\n    enum addressData {fromParty,toParty}\n\n    mapping(bytes32 => TradeLib.tradeStruct) trades;\n    \n    function submitTrade(bytes32[] calldata _bytesData , uint[] calldata _intData, address[] calldata _addressData) external \n    {\n\n        bytes32 tradeId =  _bytesData[uint(bytesData.tradeId)];\n        \n        TradeLib.tradeStruct memory  trade  = trades[tradeId];\n\n        trade.tradeType = _bytesData[uint(bytesData.tradeType)];\n        trade.fromParty = _addressData[uint(addressData.fromParty)];\n        trade.toParty = _addressData[uint(addressData.toParty)];\n        trade.tradeAmount = _intData[uint(integerData.tradeAmount)];\n    }\n\n    function getTrade(bytes32 tradeId) external returns (bytes32[] memory _bytesData, uint[] memory _intData, address[] memory _addressData)\n    {\n        TradeLib.tradeStruct memory  trade  = trades[tradeId];\n        \n        _bytesData[uint(bytesData.tradeId)] = trade.tradeId;\n        _bytesData[uint(bytesData.tradeType)] = trade.tradeType;\n        _addressData[uint(addressData.fromParty)] = trade.fromParty;\n        _addressData[uint(addressData.toParty)] = trade.toParty;\n        _intData[uint(integerData.tradeAmount)] = trade.tradeAmount;\n        return (_bytesData, _intData, _addressData);\n    }    \n    \n}\n",
  "sourcePath": "/home/gourav_paliwal/Work/TradeApp/contracts/TradeImpl.sol",
  "compiler": {
    "name": "solc",
    "version": "0.5.0+commit.1d4f565a.Emscripten.clang"
  },
  "schemaVersion": "2.0.2",
  "updatedAt": "2019-04-30T08:35:38.232Z"
}